:020000040800F2
:10000000C8230020010100082913000881120008FC
:100010008512000889080008392000080000000047
:1000200000000000000000000000000009170008A8
:10003000B10F000800000000511500080118000869
:100040001B0100081B0100081B0100081B01000820
:100050001B0100081B0100081B0100081B01000810
:100060001B0100081B0100081B0100081B01000800
:100070001B0100081B0100081B0100081B010008F0
:100080001B0100081B0100081B0100081B010008E0
:100090001B0100081B0100081B0100081B010008D0
:1000A00071180008811800081B0100081B010008D6
:1000B0001B0100081B0100081B0100081B010008B0
:1000C0001B0100081B0100081B0100081B010008A0
:1000D0001B0100081B010008D91D00081B010008B6
:1000E0001B0100081B0100081B010008DFF80CD0F1
:1000F00000F050FB00480047F1280008C82300200A
:100100000648804706480047FEE7FEE7FEE7FEE7B1
:10011000FEE7FEE7FEE7FEE7FEE7FEE71118000850
:10012000ED00000840EA01039B0703D009E008C97D
:10013000121F08C0042AFAD203E011F8013B00F8AC
:10014000013B521EF9D27047D2B201E000F8012BF8
:10015000491EFBD270470022F6E710B513460A4647
:1001600004461946FFF7F0FF204610BD30B480EA80
:10017000010202F0004530F0004221F0004013D0AF
:1001800090B1C30DD40DC2F31601C0F31600E41AEA
:1001900041F4000140F400027D34914201D3641C1B
:1001A00000E04900002C02DA30BC002070474FF418
:1001B00000000023914201D3891A034340084FEA0B
:1001C0004101F7D151B1914202D14FF0004105E018
:1001D00002D24FF0010101E06FF0010103EBC450C6
:1001E000284430BC00F02BBA2DE9FE4F804681EA4E
:1001F0000300C00F0C46009021F0004123F00045A1
:10020000B8EB0200A94105D24046214690461C4663
:100210000B46024623F00040104347D0270DC7F39A
:100220000A00C3F30A510290401A019040286BDA89
:10023000C3F3130040F4801B0098924620B10023C2
:10024000D2EB030A63EB0B0B01985946C0F1400255
:10025000504600F0C3F906460D4650465946019AED
:1002600000F0DBF910EB08006141002487EA11522D
:1002700084EAE7731A4340D0009A62B3019A012AD4
:100280004FEA075215DC001B61EB02014FF0004200
:1002900002EA0752CDE90042001C41F580113246C6
:1002A0002B4600F012FA03B0BDE8F08F404621461D
:1002B000F9E7001B61EB0201001C41F580130018F7
:1002C0005B412018A2F5001747EB030140EAD57007
:1002D000B6196D4111E06D084FEA360645EAC07562
:1002E0004FEA0752001B61EB0201001C41F580112F
:1002F00049084FEA30000019514132462B4603B0FD
:10030000BDE8F04F00F0D2B9009801224000002370
:10031000D0EB020263EBE073009821464FEAE074F1
:10032000B8EB000061EB0401E9E783F000435BE711
:1003300081F0004158E72DE9FE4F81EA030404F003
:10034000004421F0004100944FF0000B23F00043E3
:1003500050EA01045ED052EA03045BD0C3F30A54AE
:10036000C1F30A552C44A4F2F3340194A0FB0254C7
:10037000C1F3130141F48011C3F3130343F4801359
:1003800001FB024400FB034E840A970A44EA8154AD
:1003900047EA8357A4FB076802958D0A05FB07858A
:1003A0004FEA932C04FB0C542705029D4FEA065894
:1003B00047EA1637B5EB08056EEB070C870E920E71
:1003C00047EA811742EA8312A7FB0201B6EB0B0151
:1003D00064EB00042B0D43EA0C335E1844EB1C5015
:1003E000DA465146E7FB0201C5F313044FEA0B332B
:1003F00043EA14534FEA0432019C43EA0603A4F192
:100400000C040294009CCDE900B400F05EF903B046
:10041000BDE8F08F00200146F9E72DE9F04D81EAB3
:10042000030404F0004B21F0004514464FF0000A8D
:1004300023F0004150EA050220D054EA01021DD009
:10044000C5F30A570246C5F31303C1F31300C1F302
:100450000A5640F4801543F48013A7EB0608101BDE
:10046000D64608F2FD3873EB050002D308F1010807
:1004700001E092185B41B8F1000F03DA0020014659
:10048000BDE8F08D00204FF48011064684460EE052
:10049000171B73EB050705D3121B63EB050306431C
:1004A0004CEA010C49084FEA300092185B4150EACF
:1004B0000107EDD152EA030012D082EA040083EA78
:1004C0000501084305D0101BAB4106D201220023D1
:1004D00006E000224FF0004302E06FF001025310EB
:1004E0001AEB06004CEB085110EB0A0041EB0B0134
:1004F000BDE8F04D00F0DAB896230022114600F076
:10050000A7B820F00040C10DC0F3160040F4000071
:100510007F2901DA00207047962903DCC1F196019A
:10052000C8407047963988407047C1F30A5210B5E9
:10053000C1F3130140F2FF3341F480119A4201DA12
:10054000002010BD40F233439A42A2F2334203DC52
:10055000524200F052F810BD904010BD00F0004231
:1005600030F000400AD0C10D01F56071C0F31600F3
:1005700042EA0151C208400711437047002001467A
:100580007047000030B5041E71F1000404DB4FF029
:100590000044404264EB0101141E73F1000405DBCA
:1005A0001C464FF00043524263EB04038B4208BFEA
:1005B000824230BD002801DBC0F10040002901DB90
:1005C000C1F1004181427047002801DBC0F10040C9
:1005D000002901DBC1F1004188427047202A04DB79
:1005E000203A00FA02F1002070479140C2F1200346
:1005F00020FA03F3194390407047202A04DB203A85
:1006000021FA02F00021704721FA02F3D040C2F132
:1006100020029140084319467047202A06DBCB1779
:10062000203A41FA02F043EAE07306E041FA02F3AD
:10063000D040C2F12002914008431946704700297A
:10064000A8BF7047401C490008BF20F00100704758
:1006500010B4B0FA80FC00FA0CF050EA010404BFB8
:1006600010BC704749B1CCF1200421FA04F411FA0E
:100670000CF118BF012121430843A3EB0C01CB1D52
:100680004FEA00614FEA102042BF002010BC7047C3
:1006900000EBC35010440029A4BF10BC7047401C9D
:1006A000490008BF20F0010010BC704710B5141EAF
:1006B00073F1000408DA401C41F1000192185B411B
:1006C0001A4301D120F0010010BD2DE9F04D9246F2
:1006D0009B4611B1B1FA81F202E0B0FA80F2203209
:1006E0009046FFF77BFF04460F4640EA0A0041EAC6
:1006F0000B0153465A46084313D0114653EA0100F2
:1007000019D0C8F140025046FFF777FF05460E4664
:10071000504659464246FFF761FF084305D0012085
:1007200004E020463946BDE8F08D0020054346EA46
:10073000E0762C4337430A986305E40AA0EB0800EF
:100740000022FD0A44EA47540A3002D5002001463F
:10075000E9E7010510196941DDE90845001969411A
:10076000BDE8F04DA2E770B521F0004303430CD083
:10077000C1F30A550024D5EB040564EB0403D61736
:10078000AD1AB34102DB0020014670BD201841EBD9
:10079000025170BD064C074D06E0E06840F00103D1
:1007A00094E8070098471034AC42F6D3FFF7A2FC58
:1007B000502C0008702C00080EB5C10F80EAE070C4
:1007C0000844CA07002140F233438DE80E000A4670
:1007D0000B46FFF77AFF03B000BD0EB540F2334180
:1007E00002910021CDE900110A460B46FFF76DFF8B
:1007F00003B000BD70B5C1F30A5201F000450024FA
:10080000C1F3130140F2FF3341F480119A4201DA3F
:10081000002070BD40F233439A42A2F2334203DC1F
:100820005242FFF7EAFE00E090402C43F1D04042F4
:1008300070BD000008B50121102000F0DBFE4FF470
:100840000050ADF8000010208DF8030003208DF853
:1008500002006946044800F0ACFB4FF40051024826
:1008600000F032FC08BD00000010014010B5024944
:10087000486800F0F3FD10BDB01F002010B54FF424
:10088000165001F087FB10BD00BFFEE707B59CB016
:1008900000201A901B9000BF00BF00BFF6491C98B3
:1008A000FFF792FE1ED3F5491C98FFF783FE19D37C
:1008B000F3491D98FFF788FE14D3F2491D98FFF7FE
:1008C00079FE0FD34FF07E511E98FFF77DFE09D3BE
:1008D0001E98FFF743FEEC4AEC4BCDE91001FFF701
:1008E00051FE01D21FB000BDE9480068FFF704FEC9
:1008F00010901D99FFF73AFC1190FFF702FE401E81
:10090000E44948600846007800287DD1DDE91C10E4
:10091000FFF72CFC1190FFF7F4FDDF49C1F8A00FA1
:10092000DC488078C0BB0020C1F8A40F0846D0F88E
:10093000A00F0C90FFF7E0FD0D90FFF70FFE0022D7
:10094000D64BCDE90E01FFF768FDCDE91001FFF7A9
:10095000ECFD401ED049C1F8A80F0846D0F8A00F02
:100960000A90FFF7C9FD0B90FFF7F8FD0022CB4B73
:10097000CDE90C01FFF751FD00224FF08043CDE996
:100980000E01FFF7D8FCCDE91001FFF7CEFD401EA8
:10099000C149C1F8AC0F3BE0FFE70020BE49C1F8F8
:1009A000A40F0846D0F8A00F0C90FFF7A5FD0D90FE
:1009B000FFF7D4FD0022B94BCDE90E01FFF72DFD65
:1009C000CDE91001FFF7B1FD401EB349C1F8AC0FEE
:1009D0000846D0F8A00F0A90FFF78EFD0B90FFF7A6
:1009E000BDFD0022AD4BCDE90C01FFF716FD002245
:1009F0004FF08043CDE90E01FFF79DFCCDE91001DA
:100A0000FFF793FD401E00E0EEE0A349C1F8A80FF8
:100A100000201990E0E01C98FFF7A0FDCDE90A0145
:100A200000209F4901F054FE00229E4BCDE90401B5
:100A3000FFF781FC00224FF08043CDE90601FFF76C
:100A40007AFCCDE90801DDE90A23FFF774FCCDE962
:100A50000C01DDE91A23FFF76EFCCDE90E0101F070
:100A6000C9FF4FF06632904BCDE91001FFF763FCF0
:100A7000CDE916011C98FFF771FDCDE90A010020B0
:100A8000874901F025FE0022864BCDE90401FFF7DE
:100A900052FC0022854BCDE90601FFF74CFCCDE965
:100AA0000801DDE90A23FFF746FCCDE90C01DDE989
:100AB0001A23FFF740FCCDE90E0101F09BFF7C4AB1
:100AC0007C4BCDE91001FFF736FCCDE914011C98F1
:100AD000FFF744FDCDE90A010020714901F0F8FD5E
:100AE0000022704BCDE90401FFF725FC0022724B78
:100AF000CDE90601FFF71FFCCDE90801DDE90A2376
:100B0000FFF719FCCDE90C01DDE91A23FFF713FC0F
:100B1000CDE90E0101F06EFF684A694BCDE9100185
:100B2000FFF709FCCDE912015A484068401C0890C3
:100B3000FFF7E2FC0990FFF711FDCDE90C01DDE9BB
:100B40001423DDE91601FFF74FFBCDE90001DDE9D4
:100B50001223FFF749FBCDE904011E98FFF7FEFCC5
:100B6000CDE90201DDE90423FFF7E5FB00224C4B50
:100B7000CDE90601FFF738FB0022524BCDE9080111
:100B8000FFF7D9FBCDE90A01DDE90C23FFF7D3FB21
:100B900000224C4BCDE90E01FFF726FBCDE91001F9
:100BA000FFF7C3FC484A199942F821001D98FFF746
:100BB000D5FC02460B46CDE90E0100203849FFF76F
:100BC0002CFCCDE91001DDE91A23FFF70DFBCDE97F
:100BD0001A011998401C19902F48D0F8A01F199895
:100BE00081423FF618AF95E1DDE91C10FFF7BEFA30
:100BF0001190FFF786FC3449C1F8A00F2548807892
:100C0000C0BB0020C1F8A40F0846D0F8A00F0C907C
:100C1000FFF772FC0D90FFF7A1FC00221F4BCDE9FE
:100C20000E01FFF7FAFBCDE91001FFF77EFC401E35
:100C30002549C1F8A80F0846D0F8A00F0A90FFF781
:100C40005BFC0B90FFF78AFC0022144BCDE90C01F2
:100C5000FFF7E3FB00224FF08043CDE90E01FFF7E1
:100C60006AFBCDE91001FFF760FC401E1649C1F890
:100C7000AC0F64E02AE0000000409C450000A0406A
:100C80000050434700007A44FCA9F1D24D62503F26
:100C900024000020B01F0020500000200000084069
:100CA0000000F03F000010406666F23F0000184070
:100CB00048E17A14AE47D13F000032401904560E85
:100CC0002DB29D3F0000E03F00100020002094491D
:100CD000C1F8A40F0846D0F8A00F0C90FFF70CFC49
:100CE0000D90FFF73BFC00228E4BCDE90E01FFF784
:100CF00094FBCDE91001FFF718FC401E8849C1F8AC
:100D0000AC0F0846D0F8A00F0A90FFF7F5FB0B9048
:100D1000FFF724FC0022834BCDE90C01FFF77DFB9C
:100D200000224FF08043CDE90E01FFF704FBCDE92F
:100D30001001FFF7FAFB401E7949C1F8A80F002007
:100D40001990E0E01C98FFF709FCCDE90A010020AA
:100D5000754901F0BDFC0022744BCDE90401FFF799
:100D6000EAFA00224FF08043CDE90601FFF7E3FAEB
:100D7000CDE90801DDE90A23FFF7DDFACDE90C0131
:100D8000DDE91A23FFF7D7FACDE90E0101F032FEB3
:100D90004FF06632664BCDE91001FFF7CCFACDE992
:100DA00016011C98FFF7DAFBCDE90A0100205E4925
:100DB00001F08EFC00225D4BCDE90401FFF7BBFA88
:100DC00000225C4BCDE90601FFF7B5FACDE9080139
:100DD000DDE90A23FFF7AFFACDE90C01DDE91A23BB
:100DE000FFF7A9FACDE90E0101F004FE524A534B78
:100DF000CDE91001FFF79FFACDE914011C98FFF728
:100E0000ADFBCDE90A010020474901F061FC002259
:100E1000464BCDE90401FFF78EFA0022484BCDE99D
:100E20000601FFF788FACDE90801DDE90A23FFF79B
:100E300082FACDE90C01DDE91A23FFF77CFACDE94E
:100E40000E0101F0D7FD3F4A3F4BCDE91001FFF7FE
:100E500072FACDE912013D484068401C0890FFF746
:100E60004BFB0990FFF77AFBCDE90C01DDE9142378
:100E7000DDE91601FFF7B8F9CDE90001DDE912233C
:100E8000FFF7B2F9CDE904011E98FFF767FBCDE942
:100E90000201DDE90423FFF74EFA0022224BCDE9DF
:100EA0000601FFF7A1F90022294BCDE90801FFF760
:100EB00042FACDE90A01DDE90C23FFF73CFA0022F2
:100EC000234BCDE90E01FFF78FF9CDE91001FFF7B4
:100ED0002CFB134A199942F821001D98FFF73EFB9D
:100EE00002460B46CDE90E0100200F49FFF795FAA7
:100EF000CDE91001DDE91A23FFF776F9CDE91A01F2
:100F00001998401C19900648D0F8A01F19988142E2
:100F10003FF618AF01200D49487000BFE2E4000021
:100F200000100020000008400000F03F00001040CA
:100F30006666F23F0000184048E17A14AE47D13FA0
:100F4000000032401904560E2DB29D3FB01F002004
:100F50000000E03F10B50446112C02D0222C22D113
:100F600010E08021114800F0C2FC01210F4800F080
:100F7000BBFC01210D4800F0C9FC01210B4800F029
:100F8000B9FC11E00021094800F0B4FC0021074839
:100F900000F0BCFC8021054800F0A9FC01210348B9
:100FA00000F0A2FC00E000BF00BF10BD002C01401B
:100FB00070472DE9F041024600250026002000235D
:100FC0000024002791F803C00CF00F0591F803C02E
:100FD0000CF0100CBCF1000F03D091F802C04CEAE9
:100FE000050591F800C0BCF1000F31D01468002055
:100FF0002BE04FF0010C0CFA00F3B1F800C00CEA42
:1010000003069E4220D183004FF00F0C0CFA03F729
:10101000BC4305FA03FC4CEA040491F803C0BCF19C
:10102000280F06D14FF0010C0CFA00FCC2F814C0D6
:101030000AE091F803C0BCF1480F05D14FF0010C54
:101040000CFA00FCC2F810C0401C0828D1D3146070
:10105000B1F800C0BCF1FF0F34DD546800202EE071
:1010600000F1080C4FF0010808FA0CF3B1F800C0C9
:101070000CEA03069E4221D183004FF00F0C0CFABC
:1010800003F7BC4305FA03FC4CEA040491F803C0DF
:10109000BCF1280F05D100F1080C08FA0CF8C2F8D1
:1010A000148091F803C0BCF1480F07D100F1080C7F
:1010B0004FF0010808FA0CF8C2F81080401C08280C
:1010C000CED35460BDE8F0810161704770B504462D
:1010D0005C4920680968884242D1002020605A4853
:1010E000407800283CD000205749487008460078D6
:1010F00008B9012000E00020534908700846007834
:10110000A0B15248D0F8A00F4E4908604F48D0F81F
:10111000A40F4F4908604D48D0F8A80F4D4908600A
:101120004A48D0F8AC0F4C49086013E04B48D0F85F
:10113000A00F444908604948D0F8A40F444908600A
:101140004648D0F8A80F434908604448D0F8AC0F8F
:10115000414908603C48808881B2414800F0E2FD86
:1011600039480078B0B33A492068096808443549DD
:101170000968B0FBF1F201FB1200344931F820009C
:1011800085B22946364800F0CFFD3249206809680B
:1011900008442C490968B0FBF1F201FB12002B490D
:1011A00031F8200085B229462D4800F0BFFD2A49BC
:1011B00020680968084423490968B0FBF1F201FB83
:1011C0001200224931F8200085B22946244800F057
:1011D000AFFD36E0FFE71E49206809680844194959
:1011E0000968B0FBF1F201FB12001C4931F8200044
:1011F00085B229461A4800F097FD1649206809680B
:10120000084410490968B0FBF1F201FB12001349D0
:1012100031F8200085B22946114800F087FD0E49BB
:1012200020680968084407490968B0FBF1F201FB2E
:1012300012000A4931F8200085B22946084800F01A
:1012400077FD70BD08000020B01F00205000002076
:101250000C000020100000201400002000100020CE
:10126000002C014010B50346044804682046196864
:1012700001F0B0FB0446204610BD00002000002015
:1012800000BFFEE700BFFEE710B500201D49C1F812
:10129000A00FC1F8A40FC1F8A80FC1F8AC0F4FF40C
:1012A0007A711848FEF757FF4FF47B6215491648CC
:1012B000FEF738FF00201549487048600870144A4E
:1012C00014491548FFF7E2FA012010490870002080
:1012D000487088700B48D0F8A00F10490860094882
:1012E000D0F8A40F0E4908600648D0F8A80F08608F
:1012F0000448D0F8AC0F0B4908601120FFF72AFE14
:1013000010BD00005000002000100020B01F002081
:10131000CDCC4C3F0060EA46000048420800002067
:1013200010000020140000207047000070B500215C
:1013300000230F22C47804B3154C246804F4E0643D
:10134000C4F5E064210AC1F10403CA40447804FAF8
:1013500003F184781440214309010E4C0678A1550D
:10136000047804F01F050124AC4005786D11AD0030
:1013700005F1E025C5F8004109E0047804F01F05F7
:101380000124AC40044D0678761145F8264070BD26
:101390000CED00E000E400E080E100E002490143E0
:1013A000024A1160704700000000FA050CED00E0F1
:1013B00008B501210C2000F01DF94FF4E060ADF8F4
:1013C000000018208DF8030003208DF80200694604
:1013D0000F48FFF7EEFD4FF46040ADF80000182015
:1013E0008DF8030003208DF8020069460948FFF7D5
:1013F000E0FD4FF48050ADF8000004208DF80300AC
:1014000003208DF8020069460248FFF7D2FD08BDAF
:1014100000080140000C014008B54FF4A060FFF740
:10142000BDFF19208DF8000000208DF801008DF817
:10143000020001208DF803006846FFF777FF1820AF
:101440008DF8000000208DF8010001208DF80200C9
:101450008DF803006846FFF769FF08BD10B58CB032
:1014600004460121C80200F0C5F8384800F05EFAD1
:10147000FFF79EFFA0B2ADF808000020ADF8040011
:10148000ADF80A00ADF8060001A9304800F052FCA2
:1014900000212E4800F00CFA6020ADF82000012059
:1014A000ADF822000420ADF824000020ADF828009B
:1014B000ADF82A00ADF826004FF48070ADF82C008E
:1014C0000020ADF82E0008A9204800F03DFB0020C8
:1014D000ADF8260008A91D4800F082FB0020ADF8F9
:1014E000260008A9194800F0CDFB4FF48060ADF844
:1014F00012004000ADF810000020ADF814007F206D
:10150000ADF816000020ADF81800ADF81A00ADF8DF
:101510001C0004A90D4800F0D7F901210B4800F088
:10152000F5F90121094800F0C3F9FFF775FF012122
:10153000064800F0D9F900220121044800F0FBFA26
:101540000021024800F0D6F90CB010BD002C01407B
:101550007047000030B5144800686422B0FBF2F117
:10156000B1F1807F00D31DE021F07F40401E4FF09D
:10157000E022506150170F22002807DA13071D0ED2
:101580000A4B00F00F04241F1D5503E013071C0E27
:10159000074B1C5400BF00204FF0E0229061072051
:1015A000106100BF30BD00002400002018ED00E0F5
:1015B00000E400E029B1064AD2690243044BDA6133
:1015C00004E0034AD2698243014BDA6170470000AC
:1015D0000010024029B1064A12690243044B1A6105
:1015E00004E0034A12698243014B1A61704700000C
:1015F0000010024029B1064A92690243044B9A61E5
:1016000004E0034A92698243014B9A6170470000EB
:101610000010024029B1064AD2680243044BDA6046
:1016200004E0034AD2688243014BDA60704700004D
:101630000010024030B500210022002400232D4D6F
:101640006D6805F00C0121B1042905D0082923D1CA
:1016500005E0294D056022E0274D05601FE0254D7E
:101660006D6805F47012234D6D6805F48034022511
:1016700005EB92421CB9214D554305600BE01D4D11
:101680006D6805F400351DB11C4D5543056002E041
:10169000194D5543056002E0174D056000BF00BFBE
:1016A000144D6D6805F0F0010909154D6B5C056876
:1016B000DD4045600F4D6D6805F4E061090A104D8D
:1016C0006B5C4568DD4085600A4D6D6805F46051CE
:1016D000C90A0B4D6B5C4568DD40C560054D6D6802
:1016E00005F44041890B074D6B5CC568B5FBF3F50C
:1016F000056130BD0010024000127A0000093D0073
:101700003800002048000020704710B500F002F8B3
:1017100010BD00000CB50020019000903348006817
:1017200040F480303149086000BF3048006800F460
:10173000003000900198401C0190009818B9019861
:10174000B0F5A06FF1D12948006800F4003010B165
:101750000120009001E0002000900098012843D172
:101760002348006840F010002149086008460068DE
:1017700020F0030008600846006840F0020008609E
:101780001A48406819494860084640684860084659
:10179000406840F4806048600846406820F47C104F
:1017A00048600846406840F4E81048600846006811
:1017B00040F08070086000BF0C48006800F00070C6
:1017C0000028F9D00948406820F003000749486024
:1017D0000846406840F00200486000BF0348406887
:1017E00000F00C000828F9D10CBD000000100240E8
:1017F0000020024001490968016070472000002074
:10180000024800680A300149086070472000002043
:1018100010B51348006840F00100114908600846FF
:101820004068104908400E494860084600680E4963
:1018300008400B4908600846006820F480200860D2
:101840000846406820F4FE0048604FF41F0088609E
:10185000FFF75BFF4FF000600449086010BD000017
:10186000001002400000FFF8FFFFF6FE08ED00E068
:1018700010B58021014800F03AF810BD002C01405D
:1018800010B50121084800F045F958B10748006833
:10189000401C064908600846FFF718FC0121024871
:1018A00000F025F810BD0000002C014018000020B9
:1018B00021B1028842F08002028004E002884FF6E3
:1018C0007F731A40028070470A884B881A438B88BE
:1018D0001A43CB881A430B891A434B891A438B89C5
:1018E0001A43A0F844207047CA4302827047CA4393
:1018F0000282704721B1028842F00102028004E0B6
:1019000002884FF6FE731A400280704731B1B0F87A
:10191000442042F40042A0F8442005E0B0F84420FE
:10192000C2F30E02A0F844207047000010B5044630
:101930006848844208D10121C014FFF76BFE0021E2
:10194000E014FFF767FEC4E0B4F1804F08D1012135
:101950000846FFF73FFE00210120FFF73BFEB8E0FD
:101960005D48844208D101210220FFF733FE0021A7
:101970000220FFF72FFEACE05848844208D1012135
:101980000420FFF727FE00210420FFF723FEA0E03C
:101990005348844208D101210820FFF71BFE002193
:1019A0000820FFF717FE94E04E48844208D1012139
:1019B0001020FFF70FFE00211020FFF70BFE88E03C
:1019C0004948844208D101212020FFF703FE00216D
:1019D0002020FFF7FFFD7CE04448844208D101212C
:1019E0004014FFF717FE00216014FFF713FE70E0AC
:1019F0003F48844209D10121C804FFF70BFE0021B2
:101A00004FF40020FFF706FE63E03A48844209D114
:101A100001210805FFF7FEFD00214FF48010FFF7BC
:101A2000F9FD56E03448844209D101214805FFF709
:101A3000F1FD00214FF40010FFF7ECFD49E02F48C5
:101A4000844208D101214020FFF7C4FD002140203D
:101A5000FFF7C0FD3DE02A48844208D101218020E3
:101A6000FFF7B8FD00218020FFF7B4FD31E02548E5
:101A7000844208D101218015FFF7ACFD0021A0159B
:101A8000FFF7A8FD25E02048844209D10121080480
:101A9000FFF7C0FD00214FF48030FFF7BBFD18E0D9
:101AA0001A48844209D101214804FFF7B3FD0021FF
:101AB0004FF40030FFF7AEFD0BE01548844208D12B
:101AC00001218804FFF7A6FD00214FF48020FFF7D5
:101AD000A1FD10BD002C01400004004000080040A2
:101AE000000C004000100040001400400034014091
:101AF000004C0140005001400054014000180040DB
:101B0000001C004000200040004001400044014013
:101B10000048014030B50246002000230024158A09
:101B200005EA0103958905EA010413B10CB101200E
:101B300000E0002030BD1AB183890B43838102E0AD
:101B400083898B438381704770B500240022002372
:101B5000058C4FF6FE7635400584028C8388048B15
:101B60004FF68F752C40B51E2C400D882C43751EEA
:101B70002A400D892A434D882A43144DA8420BD090
:101B8000134DA84208D0134DA84205D0124DA842CB
:101B900002D0124DA84213D14FF6F7752A404D8955
:101BA0002A434FF6FB752A408D882A434FF6FF657E
:101BB0002B404FF6FF552B408D892B43CD892B436E
:101BC00083800483CD888586028470BD002C01400B
:101BD0000034014000400140004401400048014001
:101BE00070B5002400220023058C4FF6EF763540B7
:101BF0000584028C8388048B48F6FF752C404FF6D1
:101C0000FF452C400D884FF6FF7606EA05252C434C
:101C10004FF6DF752A400D8906EA05152A434D88DF
:101C200006EA05152A43154DA84202D0144DA842D4
:101C30001DD14FF67F752A404D894FF6FF7606EA93
:101C400005152A434FF6BF752A408D8806EA05150B
:101C50002A434FF6FF352B404FF2FF752B408D89FD
:101C600006EA85052B43CD8906EA85052B4383804B
:101C70000483CD880587028470BD0000002C0140DC
:101C80000034014070B5002400220023058C4FF67B
:101C9000FF6635400584028C8388848B4FF68F75F0
:101CA0002C404FF6FC752C400D882C434FF6FF5509
:101CB0002A400D894FF6FF7606EA05252A434D880E
:101CC00006EA05252A43154DA84202D0144DA84224
:101CD0001DD14FF2FF752A404D894FF6FF7606EA77
:101CE00005252A434FF6FF352A408D8806EA05254B
:101CF0002A434EF6FF752B404DF6FF752B408D891C
:101D000006EA05152B43CD8906EA05152B4383808A
:101D10008483CD888587028470BD0000002C01403B
:101D20000034014081857047818670470187704784
:101D300081877047002202881D4B98420ED01D4BB0
:101D400098420BD0B0F1804F08D01B4B984205D081
:101D50001A4B984202D01A4B984204D14FF68F7317
:101D60001A404B881A43174B984207D0164B98429B
:101D700004D04FF6FF431A40CB881A4302808B8869
:101D800083850B8803850A4B98420BD0094B9842F8
:101D900008D00E4B984205D00D4B984202D00D4B07
:101DA000984201D10B7A0386012383827047000099
:101DB000002C0140003401400004004000080040B5
:101DC000000C0040001000400014004000400140A2
:101DD000004401400048014010B540F2255104483C
:101DE00000F016F810B1034800F0CEF810BD000066
:101DF000003801400044004021B1828942F4005281
:101E0000828104E082894DF6FF731A408281704717
:101E100070B50246002400230025002040F66A1613
:101E2000B14200D100BFC1F3421501F01F030126EA
:101E300006FA03F3012D02D19689334006E0022D04
:101E400002D1168A334001E0968A33400C120126F3
:101E500006FA04F41688344013B10CB1012000E0F6
:101E6000002070BDF0B503460024002600250020A8
:101E700040F66A17B94200D100BF1846C1F34214B8
:101E800001F01F06012707FA06F5012C01D10C30DD
:101E900004E0022C01D1103000E014301AB10768C0
:101EA0002F43076002E00768AF430760F0BD000002
:101EB0002DE9F04786B005460E460024A24600BF35
:101EC000A1460027B08900B100BF2F462C8A4CF6EE
:101ED000FF700440F08804432C82AC894EF6F31066
:101EE0000440B08831890843718908430443AC81B8
:101EF000AC8A4FF6FF400440B0890443AC8201A88D
:101F0000FFF798FB1F48874202D1DDF810A001E0DF
:101F1000DDF80CA0A88900F4004040B10AEBCA002B
:101F200000EB0A1031684900B0FBF1F807E00AEB5A
:101F3000CA0000EB0A1031688900B0FBF1F8642098
:101F4000B8FBF0F004012009642101FB1089A88985
:101F500000F4004040B1322000EBC900B0FBF1F0CA
:101F600000F00700044308E0322000EB0910642170
:101F7000B0FBF1F000F00F0004432C8106B0BDE887
:101F8000F08700000038014001468888C0F308004F
:101F90007047000010B586B0044601210420FFF709
:101FA00029FB01214804FFF705FB0420ADF81400CC
:101FB00003208DF8160018208DF8170005A91C487D
:101FC000FEF7F7FF0820ADF8140004208DF8170085
:101FD00005A91748FEF7EDFF26208DF80000002028
:101FE0008DF801008DF8020001208DF8030068468D
:101FF000FFF79CF901940020ADF80800ADF80A0045
:10200000ADF80C00ADF810000C20ADF80E0001A9E1
:102010000848FFF74DFF012240F225510548FFF720
:1020200021FF01210348FFF7E7FE06B010BD0000C5
:10203000000801400044004000BFFEE7490050EAAC
:10204000C12018BF04204A0D18BF40F0010040F223
:10205000FF72B2EB515F08BF40F00200012808BFD9
:10206000052070472DE9F74F144694B00021C4E9CC
:1020700002111599079121F00045C9498D4206DCEE
:102080001599C4E9000117B00020BDE8F08FC549DB
:10209000DFF814A3A9423CDD0799C44E0029C44FC0
:1020A000C44A1599534619DDFEF73FF9554506D048
:1020B000C14AC24BFEF739F9C4E900010AE04FF00A
:1020C000D352BE4BFEF731F932463B46FEF72DF9AF
:1020D000C4E9000117B00120BDE8F08FFEF784F8D5
:1020E000554506D0B44AB54BFEF77EF8C4E9000169
:1020F0000AE04FF0D352B14BFEF776F832463B463A
:10210000FEF772F8C4E9000117B04FF0FF30BDE8E8
:10211000F08FAB49A942159978DB21F00041834645
:102120008846A84AA84BFEF706F90022A74BFEF7FF
:102130005BF8FEF75FFB0990FEF73EFB06460F4695
:102140009C4A5346FEF7F7F843465A46FEF7F0F826
:1021500080468A46984A994B30463946FEF7EBF856
:102160002A0D01250B9242465346FEF7E1F8032D56
:10217000C4E9000139D00B98C1F30A51401A05EBAC
:1021800045111139814230DA9148C346784400EB59
:102190000510CDF80CA00C90D0E90023304639464C
:1021A000FEF7C9F802460B4604910690584603997B
:1021B000FEF7BBF880468A4602460B46584603990E
:1021C000FEF7B3F8049B069AFEF7AFF883460C9827
:1021D00003913946D0E902233046FEF7ACF85A465F
:1021E000039BFEF7A2F86D1CBDE707980028A2BF6D
:1021F000099817B0BDE8F08F616881F00041616017
:10220000099817B04042BDE8F08FFFE78446159863
:10221000C1F31301C0F30A50A0F2F5304FEA601881
:1022200000F01F06C6F120001390002006900790D2
:1022300041F4801E05206D4676B1664A08EB000128
:102240007A4452F8213002EB8101B3404A68139975
:1022500022FA01F1194305E05F4908EB00027944D5
:1022600051F82210A1FB0E27A1FB0C131A449A422D
:1022700034BF0123002303EB070A05EB8003D3E9F6
:1022800001B70F448F4234BF0121002193448B4496
:1022900011B1934502D903E0934501D2012100E039
:1022A0000021C3E901B7514445F82010011EA0F1F7
:1022B0000100C1DC0298059F00F10050800F1290D0
:1022C0000298DDE903568000FEF776FA8346284639
:1022D0000D91FEF782FA6FF01D02FEF744FACDE988
:1022E0000E013046FEF779FA6FF03D02FEF73BFA39
:1022F00080468A463846FEF770FA6FF05D02FEF7B8
:1023000032FA0746424653461191FDF76DFFDDE96B
:102310000E23FDF769FF5A460D9BFDF765FF00256B
:102320000E465A4628460D9BFDF7FFFFDDE90E23BA
:10233000FDF7FBFF42465346FDF7F7FF3A46119B78
:10234000FDF7F6FFDFF898A0244A5346FDF7F3FFA8
:1023500007468846234A244B31462846FDF7EBFFC3
:102360003A464346FDF740FF074688464FF0A842ED
:10237000534631462846FDF7DEFF3A464346FDF711
:1023800033FF159A12F0004F04D0129A81F00041E9
:1023900052421292C4E90001129817B0BDE8F08FC2
:1023A000FB21E93F7CD90240FB21F93F7370032EEA
:1023B0008A19A33B000040543163621A61B4D03DD6
:1023C000FB21394183C8C96D305FE43F0000E03F25
:1023D000D00900004C0900002E090000182D4454BB
:1023E000FB21F93D3326A611460B113C2DE9FF4D8B
:1023F00021F0004807460C46B8F1795F08DAFEF78D
:10240000F9F9002801BF0020324904B0BDE8F08D81
:102410003A46234610461946FDF78DFF054602460B
:102420002D480E460B460621784400F05DF82A46FA
:102430003346FDF780FFDDE9022382468B463846AE
:102440002146FDF778FF04460F4652465B46284674
:102450003146FDF770FF22463B46FDF766FF074613
:102460008A464FF0FF3228463146FEF77CF91B4A78
:1024700090450ADA3A465346FDF757FF04B000226A
:10248000BDE8F04D134BFDF753BF154A4245A8BFB9
:10249000A8F500154FF00004B8BF124D22462B4698
:1024A000FDF743FF0646884622462B460020094991
:1024B000FDF73BFF04460D463A465346304641463B
:1024C000FDF733FF04B022462B46BDE8F04DFDF783
:1024D0002FBF00000000F03F040700003333D33F5C
:1024E0000000E93F0000D23F2DE9F0414F1E00EB14
:1024F000C7010446D1E9000115461E4637F0060221
:102500000DD02A463346FDF716FF7F1E04EBC703A6
:10251000D3E90023FDF768FE37F00602F1D1022F60
:1025200025D0042F13D0062F18BFBDE8F0812A460E
:102530003346FDF700FFD4E90A23FDF755FE2A468E
:102540003346FDF7F8FED4E90823FDF74DFE2A4691
:102550003346FDF7F0FED4E90623FDF745FE2A4693
:102560003346FDF7E8FED4E90423FDF73DFE2A4695
:102570003346FDF7E0FED4E90223FDF735FE2A4697
:102580003346FDF7D8FED4E90023BDE8F041FDF75E
:102590002BBE00002DE9FF4D054621F0004084B020
:1025A0000C46B0F1795F0BDA2846FFF747FD0428A7
:1025B00008BF00F06FF8284608B02146BDE8F08D4E
:1025C0002A460B461046FDF7B6FE06460F462A463B
:1025D0002346FDF7B0FE804626488A4632463B46F3
:1025E00005217844FFF780FF83461098029160B37D
:1025F000214A224B40465146FDF79DFECDE90001A0
:102600005A4640465146029BFDF795FE8246884653
:10261000DDE906014FF0FF32FEF7A5F852464346CA
:10262000FDF783FE32463B46FDF785FEDDE90623D6
:10263000FDF77BFEDDE90023FDF777FE08B02A46B3
:102640002346BDE8F04DFDF773BE0B465A463046B3
:102650003946FDF770FE084A084BFDF7C5FD4246B6
:102660005346FDF768FE08B02A462346BDE8F04D04
:10267000FDF7BABD42060000495555555555C5BF31
:102680000122FEF770B80022134610461146FDF7EE
:10269000C4BE0000024A00201107FEF764B8000023
:1026A00001FDFFFF02E008C8121F08C1002AFAD18D
:1026B00070477047002001E001C1121F002AFBD1C2
:1026C0007047000001490860704700004C0000207E
:1026D0002DE9F84F04460D4621F000400091734962
:1026E000814211DC7249884201DC06D12CB12046BE
:1026F0002946BDE8F84FFFF7C3BF6E48002DCCBF99
:102700006D496E49BDE8F88F6D49814211DD6D4913
:102710008142D8BF4FF0FF366DDD20462946FFF7D6
:102720008DFC042808BFFFF7B5FF20462946BDE809
:10273000F88F6549654F25F00045814233DD6449D6
:10274000814219DD002632464FF08043204629465B
:10275000FDF74AFD80468A46012220462946FEF7BB
:1027600002F800223B46FDF7E0FD42465346FDF7E6
:1027700054FE04460D463EE001260022BA463B4682
:1027800020462946FDF730FD80460F46002253467D
:1027900020462946FDF7C9FD42463B46FDF73DFE72
:1027A00004460D4627E04B4981421BDDDFF828A196
:1027B00002260022534620462946FDF7BCFD002292
:1027C0003B46FDF711FD80460F460022534620464A
:1027D0002946FDF7AAFD42463B46FDF71EFE04468C
:1027E0000D4608E0032622462B4600203B49FDF714
:1027F00014FE04460D4622462B4610461946FDF7A8
:102800009AFD8B46824602460B46FDF794FD07462D
:102810000246334888460B4606217844FFF764FE9B
:1028200052465B46FDF787FD82462E488B463A4668
:10283000434605217844FFF757FE3A464346FDF7E5
:102840007AFD02460B46002E504659460CDAFDF73B
:10285000CBFC22462B46FDF76EFD01B022462B46EF
:10286000BDE8F04FFDF764BDFDF7BEFC22462B46E8
:10287000FDF761FD1C4A7A4402EBC603D3E900234D
:10288000FDF753FD22462B46FDF74FFD174A7A44CC
:1028900002EBC603D3E90023FDF74AFD009A002AA4
:1028A000B8BF81F00041BDE8F88F0000000010447F
:1028B0000000F07F182D4454FB21F93FFB21F9BFA4
:1028C0000000DC3F0000203E0000F33F0000F03F2E
:1028D0000000E63F008003400000F83F0000F0BF2A
:1028E000E2020000A00200003E020000060200001A
:1028F000FDF7A0FFFDF7C2FFFDF7B8FFFEF7C4FC30
:10290000FEF728FE52E02A48FEF7ACFC41F288317F
:1029100088424BD32648FEF76DFF2648006808B969
:10292000012000E0002023490860234800680128B6
:1029300004D0022813D0032833D121E01F48807827
:1029400008B9012000E000201C4988701C4A1D497C
:102950001D48FDF79BFF02201749086025E0174836
:10296000807808B9012000E0002014498870144ADA
:1029700014491648FDF78AFF03200F49086014E048
:102980000E48807808B9012000E000200B498870CB
:102990000B4A0C490E48FDF779FF042006490860F0
:1029A00003E001200449086000BF00BFABE700005E
:1029B00000000020B401224204000020B01F0020CB
:1029C000CDCC4C3F0060EA46000048420000C842BF
:1029D0000000484302468A4201D3501A7047881AC1
:1029E000B0F1805F01D20020F8E7C1F1FF30104460
:1029F000F4E7000000B5254B21F0004287B09A4271
:102A000003DC0022134600922BE0214B9A4208D1AE
:102A100040B94FF00100FFF755FEFFF734FE07B055
:102A200000BD03DBFFF72CFE07B000BD02AAFFF7D5
:102A300019FB10F003014FF001000DD0012914D053
:102A400002291AD00DF1080C9CE80F00FFF7CEFC0C
:102A500007B081F0004100BD0DF1080C00909CE82A
:102A60000F00FFF797FD07B000BD0DF1080C9CE8C3
:102A70000F00FFF7BBFC07B000BD0DF1080C009084
:102A80009CE80F00FFF786FDE2E70000FB21E93F2D
:102A90000000F07F000000004FBB610567ACDD3F28
:102AA000182D4454FB21E93F9BF681D20B73EF3F75
:102AB000182D4454FB21F93FE2652F227F2B7A3CED
:102AC000075C143326A6813CBDCBF07A8807703CA6
:102AD000075C143326A6913CC4EB98999999C9BF19
:102AE000711623FEC671BCBF6D9A74AFF2B0B3BF4E
:102AF0009AFDDE522DDEADBF2F6C6A2C44B4A2BF0E
:102B00000D5555555555D53FFF8300922449C23F79
:102B10006E204CC5CD45B73F513DD0A0660DB13FAD
:102B2000EB0D76244B7BA93F11DA22E33AAD903FBF
:102B30004C5555555555A53F7751C1166CC156BFDB
:102B40009015CB19A001FA3EAD529C804F7E92BEEB
:102B5000C4B1B4BD9EEE213ED43888BEE9FAA8BD0A
:102B600000004054FB21F93F3163621A61B4D03D4B
:102B70000000601A61B4D03D7370032E8A19A33B24
:102B80000000002E8A19A33BC14920259A837B3976
:102B900000000000000000006E83F9A22915444ED9
:102BA000D15727FCC0DD34F5999562DB4190433C59
:102BB000AB6351FE61C5BBDE3A6E24B7E0D24D4235
:102BC000EA2E49061C92D1091CEB1DFE3EA729B135
:102BD000F53582E88444BB2E26709CE9417E5FB4C3
:102BE00039D69139F43953838B5F849C3B28F9BDE6
:102BF000FF97F81F0F9805DE8B112FEF1F6D0A5AF4
:102C0000CF7E366DB709CB27663F464F2DEA5F9ED4
:102C1000C7BA27757BF1E5EBF739073DEA92528A8F
:102C2000B15FFB6B085D8D1FA6F810111111813F7C
:102C3000D561C119A0012ABF7DFEB157E31DC73E72
:102C4000EB9C2B8AE6E55ABE7CD5CF5A3AD9E53DB6
:102C5000702C00080000002050000000A42600088E
:102C6000C02C00085000002078230000B426000883
:102C70000000000001000000000000000000000053
:102C80000000000000000000000000000000000044
:102C90000000000000A24A04000000000000000044
:102CA00001020304060708090000000001020304F2
:102CB00001020304060708090204060800000000D8
:04000005080000ED02
:00000001FF
