:100BDD0053595354454D204552524F520D0A007BE7
:060BED0000000000007D85
:100BA90012000E120020120BC3120C56120A7212F6
:0A0BB9000C4C120C591204EB80FBE7
:1004EB00900023E014603B14607B1470030205CD75
:1004FB00240360030205DEE47FF47E01FDFC900023
:10050B001EE0F8A3E0F9A3E0FAA3E0FBC31201623B
:10051B0050030205DE90001E1201C5000000000210
:10052B0009001209BC900024E0B40228E47F247E69
:10053B00F4FDFC90001EE0F8A3E0F9A3E0FAA3E0C1
:10054B00FBC312016250030205DEC2B3C2B2C2B1D9
:10055B00C2B080009000001201C500000000E490C2
:10056B000004F08058E4FFFEFDFC900000E0F8A3CF
:10057B00E0F9A3E0FAA3E0FBC312016260137F2250
:10058B001205DF5005D2B2E480339000237403F0E0
:10059B0022B2B27F647E007D007C00120B497F6823
:1005AB007E897D097C0090001EE0F8A3E0F9A3E0B2
:1005BB00FAA3E0FBC31201624019D2B2E49000230C
:1005CB00F022C28CC2B27BFF7A0B79DD7D0E7C00F0
:0405DB00120AA1223D
:1009BC00900022E024FE6003047048E4F5089000E7
:1009CC001DE0FFE508C39F5035E50825E025E02430
:1009DC0005F582E43400F583E0FCA3E0FDA3E0FE22
:1009EC00A3E0FF900000E0F8A3E0F9A3E0FAA3E095
:1009FC00FBC312016270031201F6050880C0E4907B
:030A0C000022F0D5
:010A0F0022C4
:1001F600900024E014603C1470030202E7147003BC
:1002060002031E147003020359240460030203BF91
:10021600900004E024FE600F24FE600E24FC600DB6
:100226002407700CB2B022B2B122B2B222B2B3220B
:100236000202E1900004E014B40F0040030202E160
:1002460090025475F003A4C58325F0C5837302029A
:100256008102028402028D0202870202960202A62F
:100266000202BD02028A02029F0202AF0202C60217
:1002760002B60202CF0202E10202D80203320203F0
:100286003B02034402034AD2B1D2B0C2B3C2B22285
:10029600D2B2D2B0C2B3C2B122D2B3D2B002033606
:1002A600D2B2D2B1C2B3C2B022D2B3D2B102033FEC
:1002B600D2B3D2B2020354D2B2D2B1D2B0C2B322B6
:1002C600D2B3D2B1D2B0C2B222D2B3D2B2D2B0C2BB
:1002D600B122D2B3D2B2D2B1D2B022C2B3C2B280AC
:1002E6006D900004E024FE601024FE601024FC6083
:1002F6001024077010D2B08014D2B18010D2B28010
:100306000CD2B38008C2B3C2B2C2B1C2B090001E52
:100316001201C50000000022900004E024FE6015D2
:1003260024FE601A24FC601C2407701ED2B0C2B3DF
:10033600C2B2C2B122D2B1C2B3C2B2C2B022D2B22A
:10034600C2B3800AD2B3C2B28004C2B3C2B2C2B1CF
:03035600C2B02210
:1003590078097C007D007BFF7A0B79EC7E007F07B2
:100369001200F6900000E0FCA3E0FDA3E0FEA3E08C
:10037900FF78101201738F0A900000E0FCA3E0FDE2
:10038900A3E0FEA3E0FF78081201738F0B90000031
:10039900A3A3A3E0F50CA3E0F50D7B007A0079098E
:1003A9007D057C00120AF98F0E7B007A0079097DA0
:0603B900077C00120AA1FE
:0103BF00221B
:100A72009000001201C500000000E4900004F09014
:100A8200001DF0900023F090001E1201C50000002E
:0F0A920000E4900022F09000247402F00206D0DD
:10000E00E4F5B2F5B1F5CAF5C9C2B3C2B2C2B1C216
:02001E00B0220E
:100BF300538E7F5389F0438902758AEA758CEAD252
:060C03008CD2A9D2AF2241
:03000B0002096285
:10096200C0E0C0F0C083C082C0D075D000C000C05B
:1009720001C002C003C004C005C006C0071203C004
:1009820090001EE0FCA3E0FDA3E0FEA3E02401FF33
:10099200E43EFEE43DFDE43CFC90001E1201B9D0B1
:1009A20007D006D005D004D003D002D001D000D0A9
:0A09B200D0D082D083D0F0D0E03224
:03002000020BF3DD
:100BC30053890F758BE8758DFF438E40C200D28E1B
:0A0BD300D2ACD2AFD2BC75B710222D
:080003002000FDD2008F9922BC
:100AA1008B108A118912C28CED1DAE0470011C4E8F
:100AB1006017AB100512E512AA117002051114F9A5
:0C0AC10012011CFF12000380DFD28C2207
:03002300020C17B5
:0D0C1700309904C299C200309802C2983290
:0A0AF9008B108A1189128C138D14E2
:100B0300E4FFFEEEC39514E495135013AB10AA1142
:0F0B1300A9128E827583001201352FFF0E80E428
:010B220022B0
:100ACD0075BA8090FE00E4F090FE027480F090FE06
:100ADD0002E030E0F9E4F59D759F2CF59E90FE0146
:0C0AED007402F090FE0514F0E4F5BA224B
:0A0C31000000122100000000000086
:030C5600020C2469
:0D0C2400E4F5C7F5C5F5C675C380F5C4221B
:0C0B230075F003A42401FFE5F03450FE3F
:100B2F0075C78075F50C75C5018FC48EC375C65A10
:090B3F0075C6A500AFC2120C241A
:010B4800228A
:060B6D00FFE5F03450FE2C
:100B730075C78075F50C75C5028FC48EC38DC2759C
:090B8300C65A75C6A500020C2437
:060B8C00FFE5F03450FE0D
:100B920075C78075F50C75C5038FC48EC375C65AAB
:070BA20075C6A500020C243A
:1008950078267C007D007BFF7A0C79317E007F0213
:1008A5001200F678287C007D007BFF7A0C79337E78
:1008B500007F021200F67F007E40120B2F8F267FED
:1008C50001120B2F8F27E526B52806E527B5290147
:1008D500227F007E40120B920F120B92AD281F1241
:1008E5000B73AD290F120B73E5266528600CE52700
:0A08F500652960069000237403F0EB
:0108FF0022D6
:0205DF008F0982
:1005E100780A7C007D007BFF7A0C79357E007F03E1
:1005F1001200F6E509642260030206AE90001DE0D8
:1006010004F0E05403F0FB900000A3A3A3E0F50A7B
:10061100900000E0FCA3E0FDA3E0FEA3E0FF78086A
:100621001201738F0B900000E0FCA3E0FDA3E0FE3C
:10063100A3E0FF78101201738F0CEB75F003A42473
:1006410001120B8CEB75F003A42402120B8CEB75D9
:10065100F003A42403120B8CEB75F003A42401AD69
:100661000A120B6DEB75F003A42402AD0B120B6D96
:10067100EB75F003A42403FFE5F03450FEAD0C123A
:100681000B73EB120B23EF650A7020EB75F003A4DB
:100691002402120B29EFB50B12AF03EF75F003A47F
:1006A1002403120B29EFB50C02D322C322E50964FE
:1006B10011701A7F0D7E50120B92900024E0FD12F2
:0E06C1000B73120B2FE0B50702D322C322C326
:0106CF002208
:1006D00078087C007D007BFF7A0C79387E007F03F0
:1006E0001200F67F007E50120B2F90001DEFF05489
:1006F00003F07F0D120B2F900024EFF075F00584AE
:10070000E5F0F0E4F50B90001DE0FFE50BC39F5012
:100710007BE50B120B238F08E50B75F003A4240275
:10072000120B298F09E50B75F003A42403120B2982
:100730008F0AAF09E4FCFDFE7808120186C004C0F0
:1007400005C006C007AF0AE4FCFDFE781012018662
:10075000D003D002D001D000EF2BFBEE3AFAED39F6
:10076000F9EC38F8E4FCFDFEEB2508FFEE3AFEED6F
:1007700039FDEC38FCE50B25E025E02405F582E4A5
:0C0780003400F5831201B9050B020706D6
:01078C00224A
:060C4C00120C44D2CC2280
:080C4400E4F51BC201F51A22C0
:040C5200E4F51C2287
:100A4200C3E51C94D0748094874024E4FFFEFDFC2F
:100A5200900000E0F8A3E0F9A3E0FAA3E0FB1201A2
:100A620062600C900023E0700604F0900022F022F5
:100A1000D3E51C94F4748094815026E4FFFEFDFC21
:100A2000900000E0F8A3E0F9A3E0FAA3E0FBC31212
:100A30000162600D900023E0700704F09000220432
:020A4000F022A2
:1003C000051AE51AB42A05E4F51A051CE51B1460A4
:1003D00019146062240260030204EA30CC030204B0
:1003E000EAE4F51DF51E751B012220CC09051EE56A
:1003F0001E7052051D22D3E51E9464E51D940B402A
:1004000008300105C201020A10D3E51E94F4E51D6F
:10041000940140030204ABC3E51E94FAE51D940069
:1004200050030204ABA2CCE433F515E4F51DF51E30
:10043000F51F751B0222A2CCE433B51509051EE594
:100440001E7002051D22A2CCE433F51530CC030248
:1004500004E5AF19AE18AD17AC1678011201868FFE
:10046000198E188D178C16C3E51E9436E51D940061
:100470005010E51E9425E51D94004006E519440141
:100480008019C3E51E9419E51D9400501EE51E94C5
:100490000DE51D94004014E51954FEF519E518F515
:1004A00018E517F517E516F5168004E4F51B220587
:1004B0001FE51FC39418402DAF19AE18AD17AC1629
:1004C00078041201739000001201B9E519540FFF6E
:1004D000900004EFF0E4F51BF51F200105D2011296
:0A04E0000C52120A42E4F51DF51E4D
:0104EA0022EF
:0D0C0900012300012400012500022100004C
:030C5900D2B222F2
:090C3B0020B2037F01227F002298
:10081900E4FE120C3B8F25E52314601814602114A3
:10082900602A1460582404705DE5256524605775B5
:1008390023018052E525B5240575230280488043AC
:10084900E525B52405752303803C8027E525B524D6
:01085900227C
:10085A000522E522AC217002052114D394F4EC940C
:10086A00014022E4F521F522752304E5244480FEA3
:10087A008013E4F523E5244440FE8009E525652438
:0A088A006003E4F523852524AF0682
:010894002241
:100900001208198F08E5086058E50830E62F30E036
:1009100050C2B2900024E004F0E075F00584E5F0E8
:10092000F07F111205DF40079000237403F0227F4F
:10093000C87E007D007C00120B49D2B222E508304F
:10094000E71F30E01CC2B29000001201C500000099
:10095000009000237402F090001E1201C5000000F8
:010960000096
:010961002273
:100B49008F0C8E0B8D0A8C09780974FF12019BECAE
:050B59004D4E4F600E3F
:0C0B5E00750D0F750E5AD50EFDD50DFA61
:030B6A0080E52201
:0300000002078D67
:0C078D00787FE4F6D8FD7581290207D4BE
:10002600E709F608DFFA8046E709F208DFFA803EBC
:1000360088828C83E709F0A3DFFA8032E309F608A9
:10004600DFFA8078E309F208DFFA807088828C8311
:10005600E309F0A3DFFA806489828A83E0A3F608C5
:10006600DFFA805889828A83E0A3F208DFFA804C9F
:1000760080D280FA80C680D4806980F28033801076
:1000860080A680EA809A80A880DA80E280CA8033DF
:1000960089828A83ECFAE493A3C8C582C8CCC58357
:1000A600CCF0A3C8C582C8CCC583CCDFE9DEE78027
:1000B6000D89828A83E493A3F608DFF9ECFAA9F0A6
:1000C600EDFB2289828A83ECFAE0A3C8C582C8CCFC
:1000D600C583CCF0A3C8C582C8CCC583CCDFEADE15
:1000E600E880DB89828A83E493A3F208DFF980CC77
:1000F60088F0EF60010E4E60C388F0ED2402B40470
:100106000050B9F582EB2402B4040050AF23234516
:06011600822390007673C5
:10011C00BB010689828A83E0225002E722BBFE02E1
:09012C00E32289828A83E4932214
:10013500BB010CE58229F582E5833AF583E022507F
:1001450006E92582F8E622BBFE06E92582F8E222C9
:0D015500E58229F582E5833AF583E49322E3
:10016200EB9FF5F0EA9E42F0E99D42F0E89C45F0F3
:01017200226A
:10017300E8600FECC313FCED13FDEE13FEEF13FF6A
:03018300D8F1228E
:10018600E8600FEFC333FFEE33FEED33FDEC33FCD7
:03019600D8F1227B
:100199007401FF3395E0FEFDFC080808E6CF2FF651
:1001A90018E6CE3EF618E6CD3DF618E6CC3CF6222A
:0C01B900ECF0A3EDF0A3EEF0A3EFF022B9
:1001C500A8828583F0D083D0821201DC1201DC1273
:1001D50001DC1201DCE473E493A3C583C5F0C58398
:1001E500C8C582C8F0A3C583C5F0C583C8C582C884
:0101F50022E7
:10079900020BA9E493A3F8E493A34003F68001F2C2
:1007A90008DFF48029E493A3F85407240CC8C33361
:1007B900C4540F4420C8834004F456800146F6DF30
:1007C900E4800B0102040810204080900C09E47EAB
:1007D900019360BCA3FF543F30E509541FFEE49325
:1007E900A360010ECF54C025E060A840B8E493A3EC
:1007F900FAE493A3F8E493A3C8C582C8CAC583CA17
:10080900F0A3C8C582C8CAC583CADFE9DEE780BECE
:010C160000DD
:00000001FF
